:020000040800F2
:10000000000002201D7B0008517900085779000884
:100010005D79000863790008697900080000000034
:100020000000000000000000000000006F790008E0
:100030007D790008000000008B790008997900089C
:100040006D7B00086D7B00086D7B00086D7B0008F0
:100050006D7B00086D7B00086D7B00086D7B0008E0
:100060006D7B00086D7B00086D7B00086D7B0008D0
:100070006D7B00086D7B00086D7B00086D7B0008C0
:100080006D7B00086D7B00086D7B000800000000A0
:100090000000000000000000000000006D7B000870
:1000A0006D7B00086D7B00086D7B00086D7B000890
:1000B0006D7B00086D7B00086D7B00086D7B000880
:1000C0006D7B00086D7B00086D7B00086D7B000870
:1000D0006D7B00086D7B00086D7B00080000000050
:1000E0006D7B00086D7B00086D7B00080000000040
:1000F0000000000000000000000000006D7B000810
:10010000000000006D7B00086D7B00086D7B00081F
:1001100000000000000000000000000000000000DF
:100120006D7B00086D7B00086D7B00086D7B00080F
:100130006D7B0008000000000000000000000000CF
:100140000000000000000000000000006D7B0008BF
:100150006D7B00086D7B00086D7B00086D7B0008DF
:100160006D7B00086D7B00080000000000000000AF
:10017000000000000000000000000000000000007F
:10018000000000006D7B000800000000000000007F
:080190006D7B00086D7B000887
:1001A00010B5054C237833B9044B13B10448AFF3B1
:1001B00000800123237010BDE0010020000000003A
:1001C00038CD000808B5034B1BB103490348AFF312
:1001D000008008BD00000000E401002038CD0008C8
:1001E000034613F8012B002AFBD1181A0138704777
:1001F00001F0FF01102A2BDB10F0070F08D010F8D8
:10020000013B013A8B422DD010F0070F42B3F6D1DB
:10021000F0B441EA012141EA014122F007047FF0F4
:1002200000070023F0E80256083C85EA010586EA4B
:10023000010685FA47F5A3FA87F586FA47F6A5FA87
:1002400087F68EB9EED1F0BC01F0FF0102F0070293
:1002500032B110F8013B013A83EA010313B1F8D13E
:100260000020704701387047002D06BF354603381F
:10027000073815F0010F07D1013015F4807F02BF58
:10028000013015F4C03F0130F0BC0138704700BFA9
:1002900081F0004102E000BF83F0004330B54FEA37
:1002A00041044FEA430594EA050F08BF90EA020FA4
:1002B0001FBF54EA000C55EA020C7FEA645C7FEA37
:1002C000655C00F0E2804FEA5454D4EB5555B8BF5A
:1002D0006D420CDD2C4480EA020281EA030382EACB
:1002E000000083EA010180EA020281EA0303362D5D
:1002F00088BF30BD11F0004F4FEA01314FF4801C30
:100300004CEA113102D0404261EB410113F0004F41
:100310004FEA03334CEA133302D0524263EB4303F8
:1003200094EA050F00F0A780A4F10104D5F1200E96
:100330000DDB02FA0EFC22FA05F2801841F10001F1
:1003400003FA0EF2801843FA05F359410EE0A5F1C5
:1003500020050EF1200E012A03FA0EFC28BF4CF0F6
:10036000020C43FA05F3C01851EBE37101F00045AC
:1003700007D54FF0000EDCF1000C7EEB00006EEBB9
:100380000101B1F5801F1BD3B1F5001F0CD3490843
:100390005FEA30004FEA3C0C04F101044FEA44529A
:1003A00012F5800F80F09A80BCF1004F08BF5FEA21
:1003B000500C50F1000041EB045141EA050130BD01
:1003C0005FEA4C0C404141EB0101013C28BFB1F513
:1003D000801FE9D291F0000F04BF01460020B1FA5E
:1003E00081F308BF2033A3F10B03B3F120020CDA31
:1003F0000C3208DD02F1140CC2F10C0201FA0CF00F
:1004000021FA02F10CE002F11402D8BFC2F1200C73
:1004100001FA02F120FA0CFCDCBF41EA0C01904029
:10042000E41AA2BF01EB0451294330BD6FEA040472
:100430001F3C1CDA0C340EDC04F11404C4F120025D
:1004400020FA04F001FA02F340EA030021FA04F36F
:1004500045EA030130BDC4F10C04C4F1200220FAC6
:1004600002F001FA04F340EA0300294630BD21FA04
:1004700004F0294630BD94F0000F83F4801306BFCA
:1004800081F480110134013D4EE77FEA645C18BFBE
:100490007FEA655C29D094EA050F08BF90EA020F55
:1004A00005D054EA000C04BF1946104630BD91EA4D
:1004B000030F1EBF0021002030BD5FEA545C05D150
:1004C0004000494128BF41F0004130BD14F580048F
:1004D0003CBF01F5801130BD01F0004545F0FE4103
:1004E00041F470014FF0000030BD7FEA645C1ABF38
:1004F000194610467FEA655C1CBF0B46024650EA6F
:10050000013406BF52EA033591EA030F41F400219A
:1005100030BD00BF90F0000F04BF0021704730B520
:100520004FF4806404F132044FF000054FF00001F5
:1005300050E700BF90F0000F04BF0021704730B5B6
:100540004FF4806404F1320410F0004548BF40428B
:100550004FF000013EE700BF42004FEAE2014FEAE0
:1005600031014FEA02701FBF12F07F4393F07F4FBB
:1005700081F06051704732F07F4208BF704793F0BE
:100580007F4F04BF41F40021704730B54FF46074D1
:1005900001F0004521F000411CE700BF50EA0102D4
:1005A00008BF704730B54FF000050AE050EA01027D
:1005B00008BF704730B511F0004502D5404261EBED
:1005C00041014FF4806404F132045FEA915C3FF42E
:1005D000D8AE4FF003025FEADC0C18BF03325FEACB
:1005E000DC0C18BF033202EBDC02C2F1200300FA7C
:1005F00003FC20FA02F001FA03FE40EA0E0021FAA1
:1006000002F11444BDE600BF70B54FF0FF0C4CF48E
:10061000E06C1CEA11541DBF1CEA135594EA0C0F40
:1006200095EA0C0F00F0DEF82C4481EA030621EA7B
:100630004C5123EA4C5350EA013518BF52EA0335B6
:1006400041F4801143F4801338D0A0FB02CE4FF068
:100650000005E1FB02E506F00042E0FB03E54FF098
:100660000006E1FB03569CF0000F18BF4EF0010E90
:10067000A4F1FF04B6F5007F64F5407404D25FEA8C
:100680004E0E6D4146EB060642EAC62141EA55513F
:100690004FEAC52040EA5E504FEACE2EB4F1FD0C81
:1006A00088BFBCF5E06F1ED8BEF1004F08BF5FEAFF
:1006B000500E50F1000041EB045170BD06F00046B1
:1006C00046EA010140EA020081EA0301B4EB5C045E
:1006D000C2BFD4EB0C0541EA045170BD41F4801156
:1006E0004FF0000E013C00F3AB8014F1360FDEBF7B
:1006F000002001F0004170BDC4F10004203C35DA57
:100700000C341BDC04F11404C4F1200500FA05F3D9
:1007100020FA04F001FA05F240EA020001F000427A
:1007200021F0004110EBD37021FA04F642EB0601F0
:100730005EEA430E08BF20EAD37070BDC4F10C041A
:10074000C4F1200500FA04F320FA05F001FA04F2DE
:1007500040EA020001F0004110EBD37041F10001CA
:100760005EEA430E08BF20EAD37070BDC4F12005D5
:1007700000FA05F24EEA020E20FA04F301FA05F23D
:1007800043EA020321FA04F001F0004121FA04F2E5
:1007900020EA020000EBD3705EEA430E08BF20EAB5
:1007A000D37070BD94F0000F0FD101F000464000EF
:1007B00041EB010111F4801F08BF013CF7D041EA71
:1007C000060195F0000F18BF704703F00046520075
:1007D00043EB030313F4801F08BF013DF7D043EA46
:1007E0000603704794EA0C0F0CEA135518BF95EAFC
:1007F0000C0F0CD050EA410618BF52EA4306D1D183
:1008000081EA030101F000414FF0000070BD50EAA1
:10081000410606BF1046194652EA430619D094EA2B
:100820000C0F02D150EA013613D195EA0C0F05D115
:1008300052EA03361CBF104619460AD181EA030169
:1008400001F0004141F0FE4141F470014FF0000021
:1008500070BD41F0FE4141F4780170BD70B54FF0BC
:10086000FF0C4CF4E06C1CEA11541DBF1CEA13553C
:1008700094EA0C0F95EA0C0F00F0A7F8A4EB05041E
:1008800081EA030E52EA03354FEA013100F0888015
:100890004FEA03334FF0805545EA131343EA1263DE
:1008A0004FEA022245EA111545EA10654FEA002693
:1008B0000EF000419D4208BF964244F1FD0404F54C
:1008C000407402D25B084FEA3202B61A65EB0305A8
:1008D0005B084FEA32024FF480104FF4002CB6EB65
:1008E000020E75EB030E22BFB61A754640EA0C00E5
:1008F0005B084FEA3202B6EB020E75EB030E22BF25
:10090000B61A754640EA5C005B084FEA3202B6EB65
:10091000020E75EB030E22BFB61A754640EA9C0024
:100920005B084FEA3202B6EB020E75EB030E22BFF4
:10093000B61A754640EADC0055EA060E18D04FEAB2
:10094000051545EA16754FEA06164FEAC30343EA52
:1009500052734FEAC2025FEA1C1CC0D111F4801F1F
:100960000BD141EA00014FF000004FF0004CB6E718
:1009700011F4801F04BF01430020B4F1FD0C88BFB7
:10098000BCF5E06F3FF6AFAEB5EB030C04BFB6EBC2
:10099000020C5FEA500C50F1000041EB045170BDB5
:1009A0000EF0004E4EEA113114EB5C04C2BFD4EBE2
:1009B0000C0541EA045170BD41F480114FF0000E66
:1009C000013C90E645EA060E8DE60CEA135594EAE2
:1009D0000C0F08BF95EA0C0F3FF43BAF94EA0C0FE5
:1009E0000AD150EA01347FF434AF95EA0C0F7FF45A
:1009F00025AF104619462CE795EA0C0F06D152EAAE
:100A000003353FF4FDAE1046194622E750EA410691
:100A100018BF52EA43067FF4C5AE50EA41047FF4A2
:100A20000DAF52EA43057FF4EBAE12E74FF0FF3C07
:100A300006E000BF4FF0010C02E000BF4FF0010CD8
:100A40004DF804CD4FEA410C7FEA6C5C4FEA430C51
:100A500018BF7FEA6C5C1BD001B050EA410C0CBFA0
:100A600052EA430C91EA030F02BF90EA020F002002
:100A7000704710F1000F91EA030F58BF994208BF69
:100A800090422CBFD8176FEAE37040F00100704726
:100A90004FEA410C7FEA6C5C02D150EA013C07D17D
:100AA0004FEA430C7FEA6C5CD6D152EA033CD3D0C8
:100AB0005DF8040B704700BF8446104662468C46C2
:100AC0001946634600E000BF01B5FFF7B7FF0028F5
:100AD00048BF10F1000F01BD4DF808EDFFF7F4FF1E
:100AE0000CBF012000205DF808FB00BF4DF808EDA9
:100AF000FFF7EAFF34BF012000205DF808FB00BFCC
:100B00004DF808EDFFF7E0FF94BF012000205DF8ED
:100B100008FB00BF4DF808EDFFF7CEFF94BF0120A2
:100B200000205DF808FB00BF4DF808EDFFF7C4FF9B
:100B300034BF012000205DF808FB00BF4FEA410CE4
:100B40007FEA6C5C02D150EA013C0AD14FEA430CC7
:100B50007FEA6C5C02D152EA033C02D14FF0000004
:100B600070474FF0010070474FEA410212F5001242
:100B700015D211D56FF47873B3EB625212D94FEAE4
:100B8000C12343F0004343EA505311F0004F23FACE
:100B900002F018BF404270474FF00000704750EA23
:100BA000013005D111F0004008BF6FF000407047E0
:100BB0004FF00000704700BF53B94AB9002908BF81
:100BC00000281CBF4FF0FF314FF0FF3000F06EB92E
:100BD000ADF1080C6DE904CE00F006F8DDF804E094
:100BE000DDE9022304B070472DE9F047089D044673
:100BF0008C46002B40F083808A42174647D9B2FAD0
:100C000082F242B1C2F1200024FA00F091409740F4
:100C100040EA010C94404FEA1748230CBCFBF8F65D
:100C20001FFA87FE08FB16C143EA014306FB0EF1DB
:100C3000994209D9FB1806F1FF3080F019819942D9
:100C400040F21681023E3B445B1AA4B2B3FBF8F0BB
:100C500008FB103344EA034400FB0EFEA64509D905
:100C60003C1900F1FF3380F00581A64540F2028176
:100C700002383C4440EA0640A4EB0E0400261DB1B5
:100C8000D4400023C5E900433146BDE8F08702B9EE
:100C9000FFDEB2FA82F2002A50D1CB1B4FEA174E88
:100CA0001FFA87F80126B3FBFEFC210C0EFB1C3358
:100CB00041EA034108FB0CF38B4207D979180CF188
:100CC000FF3002D28B4200F2E9808446C91AA3B2F7
:100CD000B1FBFEF00EFB101143EA014408FB00F8E3
:100CE000A04507D93C1900F1FF3302D2A04500F21C
:100CF000D9801846A4EB080440EA0C40BFE78B42B9
:100D000009D9002D00F0B1800026C5E90001304668
:100D10003146BDE8F087B3FA83F6002E4AD18B4204
:100D200002D3824200F2B880841A61EB03010120F1
:100D30008C46002DA8D0C5E9004CA5E7C2F12003E0
:100D400020FA03F6974001FA02F04FEA174ED94015
:100D50003043030CB1FBFEF61FFA87F80EFB1611A9
:100D600043EA014306FB08F1994204FA02F409D967
:100D7000FB1806F1FF3C80F08D80994240F28A809A
:100D8000023E3B445B1A81B2B3FBFEF00EFB103314
:100D900041EA034100FB08F38B4207D9791800F1BF
:100DA000FF3C73D28B4271D902383944CB1A40EAE6
:100DB000064678E7C6F1200C03FA06F422FA0CF393
:100DC0001C4320FA0CF701FA06F34FEA144E21FAFD
:100DD0000CF11F433B0CB1FBFEF91FFA84F80EFB2C
:100DE000191143EA014109FB08FA8A4502FA06F2A1
:100DF00000FA06F308D9611809F1FF3048D28A4594
:100E000046D9A9F102092144A1EB0A01BFB2B1FB05
:100E1000FEF00EFB101147EA014700FB08F8B84549
:100E200007D9E71900F1FF312ED2B8452CD9023885
:100E3000274440EA0940A7EB0807A0FB02894F4579
:100E4000C64649461AD317D05DB1B3EB0E0267EB25
:100E5000010707FA0CFCF2404CEA0202F740C5E930
:100E6000002700263146BDE8F0872E4628460BE7CE
:100E70000646E9E61846FDE64345E5D2B8EB020E24
:100E800069EB04010138DFE70846D2E760468DE7E9
:100E90008146B9E7664675E730464AE7ACF1020C91
:100EA000394413E702383C4424E700BF704700BFD1
:100EB000B0B586B000AFF860B9607A603B600023DF
:100EC0007B6118E07B69DB00FA681344D3E9000119
:100ED0007B69DB00BA681344D3E900237C69E40032
:100EE0003D682C44FFF7DAF902460B46C4E90023BB
:100EF0007B6901337B617A697B689A42E2DB00BFE0
:100F000000BF1837BD46B0BD90B589B000AF78615D
:100F100087ED020B39617A600023FB6114E0FB6905
:100F2000DB007A691344D3E90001FB69DB007A68CE
:100F3000D418D7E90223FFF767FB02460B46C4E942
:100F40000023FB690133FB61FA693B699A42E6DBE6
:100F500000BF00BF2437BD4690BD00000000000068
:100F6000B0B5ADF5EB5D00AF07F120031C3B186099
:100F70003B46196007F120031C3B1B681033D3E983
:100F80000001D0A3D3E90023FFF7BAFD0346002BED
:100F90002DD007F59F5101F108014FF00002C84B19
:100FA000C1E9002307F59F5101F108014FF000024C
:100FB0004FF00003C1E9022307F59F5101F1080139
:100FC0004FF000024FF00003C1E9042307F5C452BB
:100FD00002F1180207F59F5303F1080314461D465A
:100FE0000FCD0FC495E8030084E80300DBE007F1B0
:100FF00020031C3B1B682033D3E90001A6A3D3E9DF
:101000000023FFF77DFD0346002B00F09F8007F1D2
:1010100020031C3B1B681033D3E90001A0A3D3E9D4
:101020000023FFF76DFD0346002B2DD007F59E51E1
:1010300001F110014FF000024FF00003C1E900235D
:1010400007F59E5101F110014FF000029C4BC1E9E0
:10105000022307F59E5101F110014FF000024FF0FD
:101060000003C1E9042307F5C45202F1180207F591
:101070009E5303F1100314461D460FCD0FC495E88F
:10108000030084E803008EE007F120031C3B1B688B
:10109000D3E9000184A3D3E90023FFF731FD034620
:1010A000002B2DD007F59D5101F118014FF00002E2
:1010B0004FF00003C1E9002307F59D5101F118012C
:1010C0004FF000024FF00003C1E9022307F59D51E4
:1010D00001F118014FF00002794BC1E9042307F533
:1010E000C45202F1180207F59D5303F11803144688
:1010F0001D460FCD0FC495E8030084E8030052E0BD
:1011000007F59D514FF000024FF00003C1E90023A5
:1011100007F59D514FF00002694BC1E9022307F525
:101120009D514FF000024FF00003C1E9042307F581
:10113000C45202F1180207F59D5314461D460FCD07
:101140000FC495E8030084E803002CE007F59C51E8
:1011500001F108014FF000024FF00003C1E9002344
:1011600007F59C5101F108014FF000024FF0000318
:10117000C1E9022307F59C5101F108014FF000027B
:101180004F4BC1E9042307F5C45202F1180207F5D9
:101190009C5303F1080314461D460FCD0FC495E878
:1011A000030084E8030007F120031C3B1B6808339D
:1011B000D3E900013EA3D3E90023FFF7A1FC0346D6
:1011C000002B00F0838007F120031C3B1B681833C1
:1011D000D3E9000138A3D3E90023FFF791FC0346CC
:1011E000002B2BD007F59B5101F110014FF00002AD
:1011F0004FF00003C1E9002307F59B5101F11001F5
:101200004FF000022E4BC1E9022307F59B5101F17B
:1012100010014FF000024FF00003C1E9042307F56D
:10122000C45207F59B5303F1100314461D460FCD1E
:101230000FC495E8030084E803006AE007F59A51BB
:1012400001F118014FF000021D4BC1E9002307F521
:101250009A5101F118014FF000024FF00003C1E96B
:10126000022307F59A5101F118014FF000024FF0E7
:101270000003C1E9042307F5C45207F59A5303F1AB
:10128000180314461D460FCD0FC495E8030084E8EB
:1012900003003EE0AFF3008000000040E17AFA3F37
:1012A0000000007091EDFF3F00000080E0F5F13F8D
:1012B000000000A07243D23F000000503789ED3F8C
:1012C0000000F03F00000070E7FBF43F07F59A5183
:1012D0004FF000024FF00003C1E9002307F59A51D7
:1012E0004FF000024FF00003C1E9022307F59A51C5
:1012F0004FF00002CA4BC1E9042307F5C45207F5B9
:101300009A5314461D460FCD0FC495E8030084E898
:10131000030007F5C55303F1100307F5C45107F5A2
:10132000C45000F118000322FFF7C2FD07F12003AB
:101330001C3B1B681833D3E90001AFA3D3E900239A
:10134000FFF7DEFB0346002B00F0DC8007F12003F3
:101350001C3B1B680833D3E90001A9A3D3E9002390
:10136000FFF7CEFB0346002B00F0A68007F1200319
:101370001C3B1B68D3E90001A3A3D3E90023FFF7BB
:10138000BFFB0346002B2DD007F5995101F1080151
:101390004FF000024FF00003C1E9002307F5995117
:1013A00001F108014FF000029D4BC1E9022307F54E
:1013B000995101F108014FF000024FF00003C1E91B
:1013C000042307F5C35202F1080207F5995303F10C
:1013D000080314461D460FCD0FC495E8030084E8AA
:1013E0000300BCE007F120031C3B1B68D3E90001AC
:1013F00087A3D3E90023FFF783FB0346002B2DD0FF
:1014000007F5985101F110014FF000024FF0000371
:10141000C1E9002307F5985101F110014FF00002D6
:101420004FF00003C1E9022307F5985101F11001C3
:101430004FF000027A4BC1E9042307F5C35202F1D1
:10144000080207F5985303F1100314461D460FCD0B
:101450000FC495E8030084E8030080E007F5975186
:1014600001F118014FF000024FF00003C1E9002321
:1014700007F5975101F118014FF00002684BC1E9DF
:10148000022307F5975101F118014FF000024FF0C8
:101490000003C1E9042307F5C35202F1080207F56E
:1014A000975303F1180314461D460FCD0FC495E85A
:1014B000030084E8030052E007F597514FF0000263
:1014C0004FF00003C1E9002307F597514FF00002E8
:1014D0004FF00003C1E9022307F597514FF00002D6
:1014E0004F4BC1E9042307F5C35202F1080207F587
:1014F000975314461D460FCD0FC495E8030084E8AA
:1015000003002CE007F5965101F108014FF00002AD
:10151000434BC1E9002307F5965101F108014FF053
:1015200000024FF00003C1E9022307F5965101F1D3
:1015300008014FF000024FF00003C1E9042307F552
:10154000C35202F1080207F5965303F1080314464B
:101550001D460FCD0FC495E8030084E8030007F58E
:10156000C65303F1080307F5C35101F1080107F55C
:10157000C55000F110000322FFF79AFC07F1200389
:101580001C3B1B680833D3E9000123A3D3E90023E4
:10159000FFF7B6FA0346002B44D007F5955101F149
:1015A00010014FF000021E4BC1E9002307F59551D1
:1015B00001F110014FF000024FF00003C1E90223D6
:1015C00007F5955101F110014FF000024FF00003B3
:1015D000C1E9042307F5C25202F1100207F5955341
:1015E00003F1100314461D460FCD0FC495E8030008
:1015F00084E8030077E000BF00000080ED7CED3F51
:10160000000000B09A38D13F000000C09A8DF13F31
:1016100000000080E0F5F13F0000000458E9B63F0B
:101620000000F03F07F120031C3B1B68D3E90001D9
:10163000CEA3D3E90023FFF763FA0346002B2DD096
:1016400007F5945101F118014FF000024FF000032B
:10165000C1E9002307F5945101F118014FF0000290
:101660004FF00003C1E9022307F5945101F118017D
:101670004FF00002BC4BC1E9042307F5C25202F14E
:10168000100207F5945303F1180314461D460FCDBD
:101690000FC495E8030084E8030024E007F59451A3
:1016A0004FF000024FF00003C1E9002307F5945109
:1016B0004FF00002AC4BC1E9022307F594514FF003
:1016C00000024FF00003C1E9042307F5C25202F102
:1016D000100207F5945314461D460FCD0FC495E82C
:1016E000030084E8030007F5C75307F5C25101F171
:1016F000100107F5C65000F108000322FFF7D8FBE0
:1017000007F120031C3B1B681033D3E900018EA3B3
:10171000D3E90023FFF7F4F90346002B2DD007F59A
:10172000935101F108014FF000028F4BC1E90023F2
:1017300007F5935101F108014FF000024FF000034B
:10174000C1E9022307F5935101F108014FF00002AE
:101750004FF00003C1E9042307F5C15202F118025A
:1017600007F5935303F1080314461D460FCD0FC42C
:1017700095E8030084E803009EE007F120031C3B8A
:101780001B680833D3E9000171A3D3E90023FFF7F5
:10179000B7F90346002B6AD007F120031C3B1B68F6
:1017A0001033D3E900016CA3D3E90023FFF7A8F9B4
:1017B0000346002B2DD007F5925101F110014FF097
:1017C00000024FF00003C1E9002307F5925101F137
:1017D00010014FF00002644BC1E9022307F592515A
:1017E00001F110014FF000024FF00003C1E90423A2
:1017F00007F5C15202F1180207F5925303F11003E5
:1018000014461D460FCD0FC495E8030084E803007D
:1018100052E007F5915101F118014FF000024FF02D
:101820000003C1E9002307F5915101F118014FF0C0
:1018300000024FF00003C1E9022307F5915101F1C5
:1018400018014FF00002484BC1E9042307F5C152CB
:1018500002F1180207F5915303F1180314461D46CF
:101860000FCD0FC495E8030084E8030024E007F5DA
:1018700091514FF000024FF00003C1E9002307F53A
:1018800091514FF000024FF00003C1E9022307F528
:1018900091514FF00002344BC1E9042307F5C152C6
:1018A00002F1180207F5915314461D460FCD0FC4DF
:1018B00095E8030084E8030007F5C75303F1180314
:1018C00007F5C15101F1180107F5C7500322FFF7D1
:1018D000EFFA07F120031C3B1B682033D3E900011A
:1018E0001FA3D3E90023FFF70BF90346002B41D0D8
:1018F00007F5905101F108014FF000021A4BC1E9C0
:10190000002307F5905101F108014FF000024FF05C
:101910000003C1E9022307F5905101F108014FF0DE
:1019200000024FF00003C1E9042307F5C15207F597
:10193000905303F1080314461D460FCD0FC495E8DC
:10194000030084E80300E9E0000000C0F528F43F4C
:1019500000000070CEEFD03F0000007091EDFF3F1F
:10196000000000308716DD3F0000F03F00000080DF
:10197000AEB6F03F07F120031C3B1B681833D3E9D8
:101980000001DAA3D3E90023FFF7BAF80346002BDE
:101990002BD007F58F5101F110014FF000024FF0ED
:1019A0000003C1E9002307F58F5101F110014FF049
:1019B00000024FF00003C1E9022307F58F5101F146
:1019C00010014FF00002C84BC1E9042307F5C152D2
:1019D00007F58F5303F1100314461D460FCD0FC4B6
:1019E00095E8030084E8030098E007F120031C3B1E
:1019F0001B682033D3E90001AFA3D3E90023FFF72D
:101A00007FF80346002B2BD007F58E5101F118010A
:101A10004FF000024FF00003C1E9002307F58E519B
:101A200001F118014FF00002AF4BC1E9022307F5A5
:101A30008E5101F118014FF000024FF00003C1E98F
:101A4000042307F5C15207F58E5303F1180314461A
:101A50001D460FCD0FC495E8030084E803005DE048
:101A600007F120031C3B1B681833D3E9000194A342
:101A7000D3E90023FFF744F80346002B23D007F5F2
:101A80008E514FF000024FF00003C1E9002307F52B
:101A90008E514FF00002944BC1E9022307F58E519D
:101AA0004FF000024FF00003C1E9042307F5C152D3
:101AB00007F58E5314461D460FCD0FC495E803005D
:101AC00084E803002AE007F58D5101F108014FF089
:101AD00000024FF00003C1E9002307F58D5101F129
:101AE00008014FF000024FF00003C1E9022307F59F
:101AF0008D5101F108014FF000027B4BC1E9042335
:101B000007F5C15207F58D5303F1080314461D462E
:101B10000FCD0FC495E8030084E8030007F5C85310
:101B200003F1100307F5C15107F5C75000F1180084
:101B30000322FFF7BDF907F120031C3B1B6810339C
:101B4000D3E9000160A3D3E90023FEF7D9FF0346E0
:101B5000002B2DD007F58C5101F110014FF0000240
:101B6000614BC1E9002307F58C5101F110014FF0E1
:101B700000024FF00003C1E9022307F58C5101F187
:101B800010014FF000024FF00003C1E9042307F5F4
:101B9000C05202F1080207F58C5303F110031446FA
:101BA0001D460FCD0FC495E8030084E80300FCE058
:101BB00007F120031C3B1B682033D3E9000144A339
:101BC000D3E90023FEF79CFF0346002B00F0C08002
:101BD00007F120031C3B1B68D3E900013EA3D3E9B6
:101BE0000023FEF78DFF0346002B2DD007F58B5108
:101BF00001F118014FF000024FF00003C1E900238A
:101C000007F58B5101F118014FF000024FF000036E
:101C1000C1E9022307F58B5101F118014FF00002D1
:101C2000314BC1E9042307F5C05202F1080207F560
:101C30008B5303F1180314461D460FCD0FC495E8CE
:101C4000030084E80300B0E007F120031C3B1B689D
:101C50001033D3E9000122A3D3E90023FEF750FF9C
:101C60000346002B46D007F58B514FF000024FF092
:101C70000003C1E9002307F58B514FF000021A4B16
:101C8000C1E9022307F58B514FF000024FF000032A
:101C9000C1E9042307F5C05202F1080207F58B538E
:101CA00014461D460FCD0FC495E8030084E80300D9
:101CB0007BE000BFAFF3008000000060E5D0F23FA2
:101CC000000000A0EFA7E63F000000C0F528F43FA9
:101CD000000000D076BEF83F0000005082E2EF3FE7
:101CE0000000007091EDFF3F0000F03F0000009009
:101CF000438BC43F07F58A5101F108014FF0000200
:101D00004FF00003C1E9002307F58A5101F10801F2
:101D10004FF000024FF00003C1E9022307F58A519A
:101D200001F108014FF00002C14BC1E9042307F59E
:101D3000C05202F1080207F58A5303F10803144662
:101D40001D460FCD0FC495E8030084E803002CE086
:101D500007F5895101F110014FF000024FF0000327
:101D6000C1E9002307F5895101F110014FF000028C
:101D70004FF00003C1E9022307F5895101F1100179
:101D80004FF00002AA4BC1E9042307F5C05202F14B
:101D9000080207F5895303F1100314461D460FCDC1
:101DA0000FC495E8030084E8030007F5C95303F165
:101DB000080307F5C05101F1080107F5C85000F10B
:101DC00010000322FFF774F807F120031C3B1B6887
:101DD000D3E9000190A3D3E90023FEF791FE034667
:101DE000002B2DD007F5885101F118014FF00002AA
:101DF0004FF00003C1E9002307F5885101F11801F4
:101E00004FF000024FF00003C1E9022307F58851AB
:101E100001F118014FF00002854BC1E9042307F5D9
:101E2000BF5202F1100207F5885303F1180314465C
:101E30001D460FCD0FC495E8030084E803009EE023
:101E400007F120031C3B1B681033D3E9000174A386
:101E5000D3E90023FEF754FE0346002B25D007F5F7
:101E600088514FF00002724BC1E9002307F58851F9
:101E70004FF000024FF00003C1E9022307F588513B
:101E80004FF000024FF00003C1E9042307F5BF52F1
:101E900002F1100207F5885314461D460FCD0FC4FA
:101EA00095E8030084E8030069E007F120031C3B88
:101EB0001B682033D3E900015BA3D3E90023FEF7BD
:101EC0001FFE0346002B2DD007F5875101F10801B5
:101ED0004FF000024FF00003C1E9002307F58751DE
:101EE00001F108014FF00002514BC1E9022307F54F
:101EF000875101F108014FF000024FF00003C1E9E2
:101F0000042307F5BF5202F1100207F5875303F1CE
:101F1000080314461D460FCD0FC495E8030084E85E
:101F200003002CE007F5865101F110014FF000028B
:101F30004FF00003C1E9002307F5865101F11001BC
:101F40004FF000024FF00003C1E9022307F586516C
:101F500001F110014FF00002354BC1E9042307F5F0
:101F6000BF5202F1100207F5865303F11003144625
:101F70001D460FCD0FC495E8030084E8030007F564
:101F8000CA5307F5BF5101F1100107F5C95000F11F
:101F900008000322FEF78CFF07F120031C3B1B689F
:101FA0001033D3E900011EA3D3E90023FEF7A8FDF7
:101FB0000346002B3ED007F5855101F118014FF083
:101FC00000021B4BC1E9002307F5855101F11801FF
:101FD0004FF000024FF00003C1E9022307F58551DD
:101FE00001F118014FF000024FF00003C1E9042392
:101FF00007F5BE5202F1180207F5855303F11803E5
:1020000014461D460FCD0FC495E8030084E8030075
:10201000EDE000BFAFF3008000000080AEB6F03FFF
:10202000000000C0F528F43F000000D076BEF83F65
:102030000000F03F07F120031C3B1B680833D3E985
:102040000001B0A3D3E90023FEF75AFD0346002B9D
:1020500000F0A08007F120031C3B1B681833D3E974
:102060000001AAA3D3E90023FEF74AFD0346002B93
:1020700025D007F585514FF000024FF00003C1E96C
:10208000002307F585514FF000029D4BC1E9022363
:1020900007F585514FF000024FF00003C1E904231A
:1020A00007F5BE5202F1180207F5855314461D4686
:1020B0000FCD0FC495E8030084E8030097E007F113
:1020C00020031C3B1B682033D3E9000186A3D3E91E
:1020D0000023FEF715FD0346002B2DD007F5845194
:1020E00001F108014FF000024FF00003C1E90023A5
:1020F00007F5845101F108014FF00002804BC1E95E
:10210000022307F5845101F108014FF000024FF05E
:102110000003C1E9042307F5BE5202F1180207F5D6
:10212000845303F1080314461D460FCD0FC495E8F0
:10213000030084E803005AE007F5835101F1100120
:102140004FF000024FF00003C1E9002307F583516F
:1021500001F110014FF000024FF00003C1E902232A
:1021600007F5835101F110014FF00002644BC1E902
:10217000042307F5BE5202F1180207F5835303F159
:10218000100314461D460FCD0FC495E8030084E8E4
:1021900003002CE007F5825101F118014FF0000215
:1021A0004FF00003C1E9002307F5825101F1180146
:1021B0004FF000024FF00003C1E9022307F58251FE
:1021C00001F118014FF000024D4BC1E9042307F55E
:1021D000BE5202F1180207F5825303F118031446A8
:1021E0001D460FCD0FC495E8030084E8030007F5F2
:1021F000CA5303F1180307F5BE5101F1180107F5A1
:10220000CA500322FEF754FE07F120031C3B1B6853
:102210000833D3E9000136A3D3E90023FEF770FCAD
:102220000346002B76D007F120031C3B1B680833C4
:10223000D3E9000130A3D3E90023FEF761FC034694
:10224000002B23D007F582514FF000022C4BC1E93F
:10225000002307F582514FF000024FF00003C1E95F
:10226000022307F582514FF000024FF00003C1E94D
:10227000042307F5BE5207F5825314461D460FCDC1
:102280000FC495E8030084E803006EE007F5815170
:1022900001F108014FF000024FF00003C1E90023F3
:1022A00007F5815101F108014FF00002144BC1E91B
:1022B000022307F5815101F108014FF000024FF0B0
:1022C0000003C1E9042307F5BE5207F5815303F16A
:1022D000080314461D460FCD0FC495E8030084E89B
:1022E000030042E0AFF30080000000F053E3F13F51
:1022F000000000B09A38D13F000000505732B73F7D
:102300000000F03F0000006074C6D33F000000F002
:102310002631E83F07F5805101F110014FF000022E
:102320004FF00003C1E9002307F5805101F11001CE
:102330004FF000024FF00003C1E9022307F580517E
:1023400001F110014FF00002B74BC1E9042307F57A
:10235000BE5207F5805303F1100314461D460FCDFE
:102360000FC495E8030084E8030007F5CB5303F19D
:10237000100307F5BE5107F5CA5000F118000322FB
:10238000FEF796FD07F120031C3B1B680833D3E9D9
:1023900000019BA3D3E90023FEF7B2FB0346002B09
:1023A0005AD007F120031C3B1B682033D3E90001FE
:1023B00095A3D3E90023FEF7A3FB0346002B25D00A
:1023C00007F6F8714FF00002974BC1E9002307F6BA
:1023D000F8714FF000024FF00003C1E9022307F645
:1023E000F8714FF000024FF00003C1E9042307F534
:1023F000BD5202F1080207F6F87314461D460FCDD0
:102400000FC495E8030084E803004AE007F57E6105
:102410004FF000024FF00003C1E9002307F57E6191
:102420004FF00002804BC1E9022307F57E614FF0B7
:1024300000024FF00003C1E9042307F5BD5202F189
:10244000080207F57E6314461D460FCD0FC495E8BC
:10245000030084E8030024E007F6C8714FF000028F
:102460004FF00003C1E9002307F6C8714FF00002E6
:102470004FF00003C1E9022307F6C8714FF00002D4
:10248000694BC1E9042307F5BD5202F1080207F6C2
:10249000C87314461D460FCD0FC495E8030084E8A9
:1024A000030007F5CC5303F1080307F5BD5101F113
:1024B000080107F5CB5000F110000322FEF7F8FCED
:1024C00007F120031C3B1B681033D3E9000150A324
:1024D000D3E90023FEF714FB0346002B25D007F5B4
:1024E0007B614FF00002504BC1E9002307F57B618F
:1024F0004FF000024FF00003C1E9022307F57B61B2
:102500004FF000024FF00003C1E9042307F5BC526D
:1025100002F1100207F57B6314461D460FCD0FC470
:1025200095E8030084E80300A5E007F120031C3BC5
:102530001B682033D3E9000137A3D3E90023FEF75A
:10254000DFFA0346002B25D007F698714FF0000202
:102550004FF00003C1E9002307F698714FF0000225
:10256000314BC1E9022307F698714FF000024FF09A
:102570000003C1E9042307F5BC5202F1100207F67B
:10258000987314461D460FCD0FC495E8030084E8E8
:10259000030070E007F120031C3B1B680833D3E9FC
:1025A00000011FA3D3E90023FEF7AAFA0346002B7C
:1025B0003CD007F578614FF000024FF00003C1E90D
:1025C000002307F578614FF00002174BC1E90223A1
:1025D00007F578614FF000024FF00003C1E90423D2
:1025E00007F5BC5202F1100207F5786314461D4648
:1025F0000FCD0FC495E8030084E803003BE000BF63
:10260000000000B09A38D13F000000082B87DE3F61
:10261000000000C0F528F43F00000010D7A3F23FEF
:10262000000000D081AACC3F0000F03F07F668719F
:102630004FF000024FF00003C1E9002307F6687174
:102640004FF000024FF00003C1E9022307F6687162
:102650004FF000029E4BC1E9042307F5BC5202F182
:10266000100207F6687314461D460FCD0FC495E897
:10267000030084E8030007F5CD5307F5BC5101F1D1
:10268000100107F5CC5000F108000322FEF710FC02
:1026900007F120031C3B1B681033D3E9000182A320
:1026A000D3E90023FEF72CFA0346002B25D007F5CB
:1026B00075614FF00002864BC1E9002307F5756193
:1026C0004FF000024FF00003C1E9022307F57561E6
:1026D0004FF000024FF00003C1E9042307F5BB529D
:1026E00002F1180207F5756314461D460FCD0FC49D
:1026F00095E8030084E8030011E107F120031C3B87
:102700001B682033D3E9000169A3D3E90023FEF756
:10271000F7F90346002B00F0DD8007F120031C3B96
:102720001B68D3E9000164A3D3E90023FEF7E8F9AD
:102730000346002B25D007F638714FF000024FF00A
:102740000003C1E9002307F638714FF000024FF093
:102750000003C1E9022307F638714FF000025C4B19
:10276000C1E9042307F5BB5202F1180207F63873DA
:1027700014461D460FCD0FC495E8030084E80300FE
:10278000CDE007F120031C3B1B681033D3E90001A7
:102790004BA3D3E90023FEF7B3F90346002B25D062
:1027A00007F572614FF000024FF00003C1E900230A
:1027B00007F572614FF00002454BC1E9022307F5AE
:1027C00072614FF000024FF00003C1E9042307F5E6
:1027D000BB5202F1180207F5726314461D460FCD75
:1027E0000FC495E8030084E8030098E007F1200394
:1027F0001C3B1B680833D3E9000133A3D3E9002352
:10280000FEF77EF90346002B25D007F608714FF03E
:1028100000024FF00003C1E9002307F608714FF0F2
:1028200000024FF00003C1E9022307F608714FF0E0
:102830000002274BC1E9042307F5BB5202F118023D
:1028400007F6087314461D460FCD0FC495E8030024
:1028500084E8030063E007F56F614FF000024FF07A
:102860000003C1E9002307F56F614FF00002184B28
:10287000C1E9022307F56F614FF000024FF000033A
:10288000C1E9042307F5BB5202F1180207F56F6393
:1028900014461D460FCD0FC495E8030084E80300DD
:1028A0003DE000BFAFF30080000000706891F43F8E
:1028B000000000906E12FD3F000000E83703F03F7B
:1028C0000000007091EDFF3F000000B0FDD0CE3F52
:1028D0000000F03F07F6D8614FF000024FF0000310
:1028E000C1E9002307F6D8614FF000024FF0000362
:1028F000C1E9022307F6D8614FF00002BE4BC1E9DF
:10290000042307F5BB5202F1180207F6D8631446F8
:102910001D460FCD0FC495E8030084E8030007F5BA
:10292000CD5303F1180307F5BB5101F1180107F569
:10293000CD500322FEF7BCFA07F120031C3B1B68B5
:102940001033D3E90001A0A3D3E90023FEF7D8F8A0
:102950000346002B23D007F56C614FF00002A64B15
:10296000C1E9002307F56C614FF000024FF000034E
:10297000C1E9022307F56C614FF000024FF000033C
:10298000C1E9042307F5BB5207F56C6314461D46E5
:102990000FCD0FC495E8030084E8030055E007F16C
:1029A00020031C3B1B681833D3E9000188A3D3E93B
:1029B0000023FEF7A5F80346002B23D007F6A861F5
:1029C0004FF000024FF00003C1E9002307F6A861B1
:1029D0004FF000024FF00003C1E9022307F6A8619F
:1029E0004FF00002844BC1E9042307F5BB5207F600
:1029F000A86314461D460FCD0FC495E8030084E874
:102A0000030022E007F569614FF000024FF0000378
:102A1000C1E9002307F569614FF00002764BC1E977
:102A2000022307F569614FF000024FF00003C1E98E
:102A3000042307F5BB5207F5696314461D460FCD05
:102A40000FC495E8030084E8030007F5CE5303F1B3
:102A5000100307F5BB5107F5CD5000F11800032214
:102A6000FEF726FA07F120031C3B1B680833D3E965
:102A7000000159A3D3E90023FEF742F80346002BD7
:102A800000F0E28007F120031C3B1B682033D3E9F0
:102A9000000153A3D3E90023FEF732F80346002BCD
:102AA00025D007F678614FF00002534BC1E90023AF
:102AB00007F678614FF000024FF00003C1E90223EE
:102AC00007F678614FF000024FF00003C1E90423DC
:102AD00007F5BA5202F1080207F6786314461D465C
:102AE0000FCD0FC495E8030084E80300D1E007F19F
:102AF00020031C3B1B681833D3E900013AA3D3E938
:102B00000023FDF7FDFF0346002B25D007F5666186
:102B10004FF000024FF00003C1E9002307F56661A2
:102B20004FF00002344BC1E9022307F566614FF014
:102B300000024FF00003C1E9042307F5BA5202F185
:102B4000080207F5666314461D460FCD0FC495E8CD
:102B5000030084E803009CE007F120031C3B1B6892
:102B60001833D3E9000122A3D3E90023FDF7C8FFFE
:102B70000346002B42D007F648614FF000024FF0A9
:102B80000003C1E9002307F648614FF000024FF04F
:102B90000003C1E9022307F648614FF00002164B1B
:102BA000C1E9042307F5BA5202F1080207F64863A7
:102BB00014461D460FCD0FC495E8030084E80300BA
:102BC00067E000BFAFF30080000000200456F43F30
:102BD000000000D87A14D63F000000A07243D23F14
:102BE000000000082B87DE3F000000F02631E83FA0
:102BF00000000050E3A5E93F0000F03F07F56361E6
:102C00004FF000024FF00003C1E9002307F56361B4
:102C10004FF00002B44BC1E9022307F563614FF0A6
:102C200000024FF00003C1E9042307F5BA5202F194
:102C3000080207F5636314461D460FCD0FC495E8DF
:102C4000030084E8030024E007F618614FF0000257
:102C50004FF00003C1E9002307F618614FF00002AE
:102C60004FF00003C1E9022307F618614FF000029C
:102C70009D4BC1E9042307F5BA5202F1080207F699
:102C8000186314461D460FCD0FC495E8030084E871
:102C9000030007F5CF5303F1080307F5BA5101F11B
:102CA000080107F5CE5000F110000322FEF700F9ED
:102CB00007F120031C3B1B681833D3E900017EA3F6
:102CC000D3E90023FDF71CFF0346002B5AD007F180
:102CD00020031C3B1B681833D3E9000178A3D3E918
:102CE0000023FDF70DFF0346002B25D007F560619B
:102CF0004FF000024FF00003C1E9002307F56061C7
:102D00004FF000024FF00003C1E9022307F56061B4
:102D10004FF00002744BC1E9042307F5B95202F1E8
:102D2000100207F5606314461D460FCD0FC495E8E9
:102D3000030084E803004AE007F6E8514FF0000280
:102D40004FF00003C1E9002307F6E8514FF00002FD
:102D5000654BC1E9022307F6E8514FF000024FF03E
:102D60000003C1E9042307F5B95202F1100207F686
:102D7000E85314461D460FCD0FC495E8030084E8C0
:102D8000030024E007F55D614FF00002564BC1E9F6
:102D9000002307F55D614FF000024FF00003C1E929
:102DA000022307F55D614FF000024FF00003C1E917
:102DB000042307F5B95202F1100207F55D631446CA
:102DC0001D460FCD0FC495E8030084E8030007F506
:102DD000D05307F5B95101F1100107F5CF5000F1BB
:102DE00008000322FEF764F807F120031C3B1B6870
:102DF0001833D3E9000134A3D3E90023FDF780FEA3
:102E00000346002B00F01C8107F120031C3B1B68CC
:102E10002033D3E900012EA3D3E90023FDF770FE90
:102E20000346002B00F0E28007F120031C3B1B68E7
:102E30000833D3E9000128A3D3E90023FDF760FE9E
:102E40000346002B00F0AC8007F120031C3B1B68FD
:102E50001833D3E9000122A3D3E90023FDF750FE84
:102E60000346002B42D007F6B8514FF000024FF056
:102E70000003C1E9002307F6B8514FF000021A4BD6
:102E8000C1E9022307F6B8514FF000024FF00003EA
:102E9000C1E9042307F5B85202F1180207F6B85346
:102EA00014461D460FCD0FC495E8030084E80300C7
:102EB000EBE000BFAFF3008000000080ED7CED3F51
:102EC00000000080EB51D83F000000308B6CED3FDC
:102ED000000000906CE7F83F000000B09A38D13F46
:102EE000000000F02631E83F0000F03F07F120032A
:102EF0001C3B1B68D3E90001C4A3D3E90023FDF701
:102F0000FFFD0346002B25D007F55A614FF0000264
:102F10004FF00003C1E9002307F55A614FF00002AA
:102F2000B94BC1E9022307F55A614FF000024FF097
:102F30000003C1E9042307F5B85202F1180207F5AE
:102F40005A6314461D460FCD0FC495E8030084E86C
:102F500003009AE007F688514FF000024FF000039B
:102F6000C1E9002307F688514FF000024FF000033B
:102F7000C1E9022307F688514FF00002A24BC1E9D4
:102F8000042307F5B85202F1180207F688531446D5
:102F90001D460FCD0FC495E8030084E8030074E0DC
:102FA00007F557614FF000024FF00003C1E900231D
:102FB00007F557614FF000024FF00003C1E902230B
:102FC00007F557614FF000028F4BC1E9042307F565
:102FD000B85202F1180207F5576314461D460FCD8B
:102FE0000FC495E8030084E803004EE007F556633C
:102FF000083B4FF000004FF00001C3E9000107F566
:103000005663083B4FF000004FF00001C3E9020196
:1030100007F55663083B4FF000007B49C3E9040104
:1030200007F5B85202F1180207F55663083B14463B
:103030001D460FCD0FC495E8030084E8030024E08B
:1030400007F554614FF000026F4BC1E9002307F50B
:1030500054614FF000024FF00003C1E9022307F56D
:1030600054614FF000024FF00003C1E9042307F55B
:10307000B85202F1180207F5546314461D460FCDED
:103080000FC495E8030084E8030007F5D05303F16B
:10309000180307F5B85101F1180107F5D0500322C4
:1030A000FDF706FF07F120031C3B1B681833D3E92B
:1030B00000014FA3D3E90023FDF722FD0346002BB7
:1030C00027D007F55463183B4FF000004FF0000184
:1030D000C3E9000107F55463183B4FF000004FF0BF
:1030E0000001C3E9020107F55463183B4FF00000EB
:1030F0004549C3E9040107F5B85207F55463183B85
:1031000014461D460FCD0FC495E8030084E8030064
:10311000DAE007F120031C3B1B682033D3E90001F0
:1031200035A3D3E90023FDF7EBFC0346002B27D0A2
:1031300007F55263103B4FF000003349C3E900012B
:1031400007F55263103B4FF000004FF00001C3E958
:10315000020107F55263103B4FF000004FF00001F1
:10316000C3E9040107F5B85207F55263103B144652
:103170001D460FCD0FC495E8030084E80300A3E0CB
:1031800007F120031C3B1B681033D3E900011CA38B
:10319000D3E90023FDF7B4FC0346002B3AD007F532
:1031A0005063083B4FF000004FF00001C3E90001FD
:1031B00007F55063083B4FF000001349C3E90201D3
:1031C00007F55063083B4FF000004FF00001C3E9E2
:1031D000040107F5B85207F55063083B14461D4635
:1031E0000FCD0FC495E8030084E803006CE000BF36
:1031F00000000080EB51D83F000000749318E03FBE
:103200000000007091EDFF3F0000F03F000000C0A3
:103210009A8DF13F07F120031C3B1B681833D3E95B
:103220000001C6A3D3E90023FDF76AFC0346002B87
:1032300023D007F54E614FF000024FF00003C1E9C3
:10324000002307F54E614FF00002BB4BC1E902239A
:1032500007F54E614FF000024FF00003C1E904236F
:1032600007F5B85207F54E6314461D460FCD0FC43F
:1032700095E8030084E8030026E007F54E63183B59
:103280004FF000004FF00001C3E9000107F54E6365
:10329000183B4FF000004FF00001C3E9020107F5B1
:1032A0004E63183B4FF00000A349C3E9040107F542
:1032B000B85207F54E63183B14461D460FCD0FC498
:1032C00095E8030084E8030007F5D15303F11003E8
:1032D00007F5B85107F5D05000F118000322FDF7AB
:1032E000E7FD07F120031C3B1B682033D3E90001F5
:1032F00087A3D3E90023FDF703FC0346002B29D065
:1033000007F54C63103B4FF000008B49C3E9000107
:1033100007F54C63103B4FF000004FF00001C3E98C
:10332000020107F54C63103B4FF000004FF0000125
:10333000C3E9040107F5B75202F1080207F54C632F
:10334000103B14461D460FCD0FC495E8030084E8DA
:10335000030020E107F120031C3B1B68D3E90001B7
:103360006DA3D3E90023FDF7CBFB0346002B29D047
:1033700007F54A63083B4FF000004FF00001C3E936
:10338000000107F54A63083B4FF000004FF00001D1
:10339000C3E9020107F54A63083B4FF000006649A4
:1033A000C3E9040107F5B75202F1080207F54A63C1
:1033B000083B14461D460FCD0FC495E8030084E872
:1033C0000300E8E007F120031C3B1B681033D3E93E
:1033D000000153A3D3E90023FDF792FB0346002B22
:1033E00025D007F548614FF000024FF00003C1E916
:1033F000002307F548614FF000024F4BC1E902235B
:1034000007F548614FF000024FF00003C1E90423C3
:1034100007F5B75202F1080207F5486314461D4646
:103420000FCD0FC495E8030084E80300B3E007F173
:1034300020031C3B1B682033D3E900013AA3D3E9E6
:103440000023FDF75DFB0346002B7BD007F1200333
:103450001C3B1B68D3E9000135A3D3E90023FDF72A
:103460004FFB0346002B29D007F54863183B4FF06C
:1034700000004FF00001C3E9000107F54863183B65
:103480004FF000004FF00001C3E9020107F5486367
:10349000183B4FF000002849C3E9040107F5B75273
:1034A00002F1080207F54863183B14461D460FCD8C
:1034B0000FC495E8030084E803006CE007F5466359
:1034C000103B4FF000004FF00001C3E9000107F589
:1034D0004663103B4FF000001749C3E9020107F5AE
:1034E0004663103B4FF000004FF00001C3E90401B8
:1034F00007F5B75202F1080207F54663103B144680
:103500001D460FCD0FC495E8030084E8030042E098
:10351000000000749318E03F000000B0F48DF03F0D
:103520000000007091EDFF3F000000906CE7F83F55
:1035300000000080E0F5F13F0000F03F00000000D7
:1035400054E3E53F07F54463083B4FF000004FF0BC
:103550000001C3E9000107F54463083B4FF0000098
:103560004FF00001C3E9020107F54463083B4FF047
:103570000000C149C3E9040107F5B75202F108028E
:1035800007F54463083B14461D460FCD0FC495E86C
:10359000030084E8030007F5D25303F1080307F59D
:1035A000B75101F1080107F5D15000F110000322D5
:1035B000FDF77EFC07F120031C3B1B680833D3E9B1
:1035C0000001A3A3D3E90023FDF79AFA0346002BD9
:1035D00000F0D28007F120031C3B1B681833D3E9AD
:1035E00000019DA3D3E90023FDF78AFA0346002BCF
:1035F00000F0988007F120031C3B1B682033D3E9BF
:10360000000197A3D3E90023FDF77AFA0346002BC4
:1036100025D007F542614FF000024FF00003C1E9E9
:10362000002307F542614FF00002934BC1E90223EA
:1036300007F542614FF000024FF00003C1E9042397
:1036400007F5B65202F1100207F5426314461D4613
:103650000FCD0FC495E8030084E80300B1E007F143
:1036600020031C3B1B681833D3E900017EA3D3E978
:103670000023FDF745FA0346002B29D007F54263E6
:10368000183B4FF000004FF00001C3E9000107F5BF
:103690004263183B4FF000007749C3E9020107F588
:1036A0004263183B4FF000004FF00001C3E90401F2
:1036B00007F5B65202F1100207F54263183B1446B3
:1036C0001D460FCD0FC495E8030084E8030078E0A1
:1036D00007F54063103B4FF000004FF00001C3E9D5
:1036E000000107F54063103B4FF000004FF0000170
:1036F000C3E9020107F54063103B4FF000005E494B
:10370000C3E9040107F5B65202F1100207F5406360
:10371000103B14461D460FCD0FC495E8030084E806
:1037200003004EE007F53E63083B4FF000005249AE
:10373000C3E9000107F53E63083B4FF000004FF07E
:103740000001C3E9020107F53E63083B4FF00000AA
:103750004FF00001C3E9040107F5B65202F110026F
:1037600007F53E63083B14461D460FCD0FC495E890
:10377000030084E8030024E007F53C614FF00002F9
:103780004FF00003C1E9002307F53C614FF0000250
:103790004FF00003C1E9022307F53C614FF000023E
:1037A000354BC1E9042307F5B65202F1100207F5C3
:1037B0003C6314461D460FCD0FC495E8030084E812
:1037C000030007F5D35307F5B65101F1100107F5D2
:1037D000D25000F108000322FDF76AFB07F1200335
:1037E0001C3B1B682033D3E9000121A3D3E900234C
:1037F000FDF786F90346002B40D007F53C63183BE4
:103800004FF000001C49C3E9000107F53C63183B79
:103810004FF000004FF00001C3E9020107F53C63DF
:10382000183B4FF000004FF00001C3E9040107F519
:10383000B55202F1180207F53C63183B14461D46C9
:103840000FCD0FC495E8030084E80300E7E000BF54
:1038500000000070CEEFD03F000000308B6CED3FD9
:1038600000000060E5D0F23F000000F02631E83FA4
:10387000000000082B87DE3F0000F03F07F1200327
:103880001C3B1B680833D3E90001C6A3D3E900231E
:10389000FDF736F90346002B00F0988007F120036E
:1038A0001C3B1B681033D3E90001C0A3D3E90023FC
:1038B000FDF726F90346002B29D007F53A63103BA4
:1038C0004FF000004FF00001C3E9000107F53A6333
:1038D000103B4FF00000B249C3E9020107F53A631B
:1038E000103B4FF000004FF00001C3E9040107F561
:1038F000B55202F1180207F53A63103B14461D4613
:103900000FCD0FC495E8030084E8030087E007F1BA
:1039100020031C3B1B680833D3E9000198A3D3E9BB
:103920000023FDF7EDF80346002B29D007F5386397
:10393000083B4FF000004FF00001C3E9000107F51C
:103940003863083B4FF000004FF00001C3E902016B
:1039500007F53863083B4FF000009149C3E90401C3
:1039600007F5B55202F1180207F53863083B144613
:103970001D460FCD0FC495E8030084E803004EE018
:1039800007F536614FF000024FF00003C1E9002354
:1039900007F536614FF00002814BC1E9022307F5BC
:1039A00036614FF000024FF00003C1E9042307F530
:1039B000B55202F1180207F5366314461D460FCDC5
:1039C0000FC495E8030084E8030028E007F5366398
:1039D000183B4FF000004FF00001C3E9000107F56C
:1039E0003663183B4FF000004FF00001C3E90201BD
:1039F00007F53663183B4FF000006949C3E904013D
:103A000007F5B55202F1180207F53663183B144664
:103A10001D460FCD0FC495E8030084E8030007F5A9
:103A2000D35303F1180307F5B55101F1180107F558
:103A3000D3500322FDF73CFA07F120031C3B1B681F
:103A40002033D3E9000150A3D3E90023FDF758F850
:103A50000346002B27D007F53463103B4FF00000DE
:103A60004F49C3E9000107F53463103B4FF00000F4
:103A70004FF00001C3E9020107F53463103B4FF03A
:103A800000004FF00001C3E9040107F5B55207F546
:103A90003463103B14461D460FCD0FC495E8030058
:103AA00084E80300ADE007F120031C3B1B682033D2
:103AB000D3E9000136A3D3E90023FDF721F803463B
:103AC000002B77D007F120031C3B1B681833D3E988
:103AD000000131A3D3E90023FDF712F80346002BC0
:103AE00027D007F53263083B4FF000004FF000018C
:103AF000C3E9000107F53263083B4FF000004FF0C7
:103B00000001C3E9020107F53263083B4FF00000F2
:103B10002349C3E9040107F5B55207F53263083BB1
:103B200014461D460FCD0FC495E8030084E803003A
:103B300067E007F530614FF000024FF00003C1E984
:103B4000002307F530614FF00002154BC1E9022355
:103B500007F530614FF000024FF00003C1E9042384
:103B600007F5B55207F5306314461D460FCD0FC457
:103B700095E8030084E8030043E000BFAFF3008052
:103B8000000000B0FDD0CE3F000000082B87DE3FD4
:103B9000000000F0FBA9F83F000000C822DBD53F81
:103BA0000000F03F000000B09A38D13F00000070E4
:103BB00091EDFF3F07F53063183B4FF000004FF0E9
:103BC0000001C3E9000107F53063183B4FF0000026
:103BD0004FF00001C3E9020107F53063183B4FF0D5
:103BE0000000A549C3E9040107F5B55207F53063A4
:103BF000183B14461D460FCD0FC495E8030084E81A
:103C0000030007F5D45303F1100307F5B55107F589
:103C1000D35000F118000322FDF74AF907F1200301
:103C20001C3B1B680833D3E9000189A3D3E90023B7
:103C3000FCF766FF0346002B29D007F52E63103BE7
:103C40004FF000008C49C3E9000107F52E63103BDB
:103C50004FF000004FF00001C3E9020107F52E63A9
:103C6000103B4FF000004FF00001C3E9040107F5DD
:103C7000B45202F1080207F52E63103B14461D46AC
:103C80000FCD0FC495E8030084E803001FE107F19E
:103C900020031C3B1B682033D3E900016EA3D3E94A
:103CA0000023FCF72DFF0346002B29D007F52C63DA
:103CB000083B4FF000004FF00001C3E9000107F599
:103CC0002C63083B4FF000006B49C3E9020107F584
:103CD0002C63083B4FF000004FF00001C3E90401E2
:103CE00007F5B45202F1080207F52C63083B1446AD
:103CF0001D460FCD0FC495E8030084E80300E6E0FD
:103D000007F120031C3B1B68D3E9000154A3D3E94E
:103D10000023FCF7F5FE0346002B25D007F52A61AA
:103D20004FF000024FF00003C1E9002307F52A61BC
:103D30004FF000024FF00003C1E9022307F52A61AA
:103D40004FF000024C4BC1E9042307F5B45202F1D5
:103D5000080207F52A6314461D460FCD0FC495E8E7
:103D6000030084E80300B2E007F120031C3B1B685A
:103D7000D3E900013CA3D3E90023FCF7C1FE0346CD
:103D8000002B29D007F52A63183B4FF000004FF0B5
:103D90000001C3E9000107F52A63183B4FF000005A
:103DA0003549C3E9020107F52A63183B4FF00000CB
:103DB0004FF00001C3E9040107F5B45202F1080213
:103DC00007F52A63183B14461D460FCD0FC495E82E
:103DD000030084E803007AE007F120031C3B1B6822
:103DE0000833D3E9000122A3D3E90023FCF788FEBE
:103DF0000346002B42D007F52863103B4FF000002C
:103E00004FF00001C3E9000107F52863103B4FF0B4
:103E100000001949C3E9020107F52863103B4FF080
:103E200000004FF00001C3E9040107F5B45202F1AC
:103E3000080207F52863103B14461D460FCD0FC43A
:103E400095E8030084E8030041E000BFAFF3008081
:103E5000000000A4B663B63F00000010D7A3F23FF5
:103E6000000000C0CDB5F13F0000003019D7F13F90
:103E7000000000702861D43F0000F03F07F5266382
:103E8000083B4FF000004FF00001C3E9000107F5C7
:103E90002663083B4FF000004FF00001C3E9020128
:103EA00007F52663083B4FF00000C149C3E9040150
:103EB00007F5B45202F1080207F52663083B1446E1
:103EC0001D460FCD0FC495E8030084E8030007F5F5
:103ED000D55303F1080307F5B45101F1080107F5C3
:103EE000D45000F110000322FCF7E2FF07F1200399
:103EF0001C3B1B681833D3E90001A3A3D3E90023BB
:103F0000FCF7FEFD0346002B25D007F524614FF09A
:103F100000024FF00003C1E9002307F524614FF0D0
:103F200000024FF00003C1E9022307F524614FF0BE
:103F300000029F4BC1E9042307F5B35202F11002BE
:103F400007F5246314461D460FCD0FC495E8030002
:103F500084E80300CFE007F120031C3B1B68083313
:103F6000D3E900018AA3D3E90023FCF7C9FD034686
:103F7000002B29D007F52463183B4FF000008C4933
:103F8000C3E9000107F52463183B4FF000004FF030
:103F90000001C3E9020107F52463183B4FF000005C
:103FA0004FF00001C3E9040107F5B35202F110021A
:103FB00007F52463183B14461D460FCD0FC495E842
:103FC000030084E8030096E007F120031C3B1B6814
:103FD0001833D3E9000170A3D3E90023FCF790FD67
:103FE0000346002B29D007F52263103B4FF0000059
:103FF0004FF00001C3E9000107F52263103B4FF0C9
:1040000000006B49C3E9020107F52263103B4FF042
:1040100000004FF00001C3E9040107F5B35202F1BB
:10402000100207F52263103B14461D460FCD0FC446
:1040300095E8030084E803005DE007F120031C3BE2
:104040001B681833D3E9000155A3D3E90023FCF71B
:1040500057FD0346002B29D007F52063083B4FF09E
:1040600000004FF00001C3E9000107F52063083BA1
:104070004FF000004FF00001C3E9020107F5206393
:10408000083B4FF000004A49C3E9040107F5B35269
:1040900002F1100207F52063083B14461D460FCDC0
:1040A0000FC495E8030084E8030024E007F51E61CF
:1040B0004FF000024FF00003C1E9002307F51E6135
:1040C0004FF000023A4BC1E9022307F51E614FF0A1
:1040D00000024FF00003C1E9042307F5B35202F1D7
:1040E000100207F51E6314461D460FCD0FC495E858
:1040F000030084E8030007F5D65307F5B35101F137
:10410000100107F5D55000F108000322FCF7D0FE9E
:1041100007F120031C3B1B682033D3E9000122A3D5
:10412000D3E90023FCF7ECFC0346002B42D007F553
:104130001E63183B4FF000001D49C3E9000107F55D
:104140001E63183B4FF000004FF00001C3E902016D
:1041500007F51E63183B4FF000004FF00001C3E964
:10416000040107F5B25202F1180207F51E63183B6D
:1041700014461D460FCD0FC495E8030084E80300E4
:10418000AFE000BFAFF30080000000D87A14D63F44
:10419000000000A4B663B63F000000F02631E83FFF
:1041A000000000A045B6E93F000000749318E03F0E
:1041B0000000F03F07F120031C3B1B680833D3E9E4
:1041C0000001A7A3D3E90023FCF79AFC0346002BC8
:1041D00062D007F120031C3B1B681833D3E90001B0
:1041E000A2A3D3E90023FCF78BFC0346002B29D0C4
:1041F00007F51C63103B4FF000004FF00001C3E9CE
:10420000000107F51C63103B4FF000009649C3E91D
:10421000020107F51C63103B4FF000004FF0000156
:10422000C3E9040107F5B25202F1180207F51C6355
:10423000103B14461D460FCD0FC495E8030084E8DB
:1042400003004EE007F51A63083B4FF000004FF003
:104250000001C3E9000107F51A63083B4FF00000B5
:104260004FF00001C3E9020107F51A63083B4FF064
:1042700000007D49C3E9040107F5B25202F11802BA
:1042800007F51A63083B14461D460FCD0FC495E889
:10429000030084E8030024E007F518614FF00002F2
:1042A0004FF00003C1E9002307F518614FF0000249
:1042B0004FF00003C1E9022307F518614FF0000237
:1042C000694BC1E9042307F5B25202F1180207F560
:1042D000186314461D460FCD0FC495E8030084E80B
:1042E000030007F5D65303F1180307F5B25101F1A6
:1042F000180107F5D6500322FCF7DAFD07F1200379
:104300001C3B1B680833D3E900014FA3D3E900230A
:10431000FCF7F6FB0346002B27D007F51863183B84
:104320004FF000005049C3E9000107F51863183B3E
:104330004FF000004FF00001C3E9020107F51863D8
:10434000183B4FF000004FF00001C3E9040107F5EE
:10435000B25207F51863183B14461D460FCD0FC423
:1043600095E8030084E80300A7E007F120031C3B65
:104370001B680833D3E9000135A3D3E90023FCF718
:10438000BFFB0346002B75D007F120031C3B1B68C5
:104390001033D3E9000130A3D3E90023FCF7B0FBCD
:1043A0000346002B27D007F51663103B4FF00000A3
:1043B0004FF00001C3E9000107F51663103B4FF011
:1043C00000002949C3E9020107F51663103B4FF0CD
:1043D00000004FF00001C3E9040107F5B25207F5F0
:1043E0001663103B14461D460FCD0FC495E803001D
:1043F00084E8030061E007F51463083B4FF0000018
:104400004FF00001C3E9000107F51463083B4FF0CA
:1044100000004FF00001C3E9020107F51463083BF7
:104420004FF000001049C3E9040107F5B25207F547
:104430001463083B14461D460FCD0FC495E80300D6
:1044400084E8030039E000BF000000463E70B53F3D
:10445000000000C09331D33F0000007091EDFF3F9A
:10446000000000A07243D23F0000F03F000000F0C7
:104470002631E83F07F512614FF000024FF00003CC
:10448000C1E9002307F512614FF000024FF000036D
:10449000C1E9022307F512614FF000029E4BC1E90A
:1044A000042307F5B25207F5126314461D460FCDDB
:1044B0000FC495E8030084E8030007F5D75303F120
:1044C000100307F5B25107F5D65000F1180003228A
:1044D000FCF7EEFC07F120031C3B1B681833D3E903
:1044E000000189A3D3E90023FCF70AFB0346002B54
:1044F00062D007F120031C3B1B680833D3E900019D
:1045000083A3D3E90023FCF7FBFA0346002B29D051
:1045100007F51263183B4FF000004FF00001C3E9AC
:10452000000107F51263183B4FF000007A49C3E918
:10453000020107F51263183B4FF000004FF0000135
:10454000C3E9040107F5B15202F1080207F512634D
:10455000183B14461D460FCD0FC495E8030084E8B0
:10456000030052E007F51063103B4FF000004FF0DE
:104570000001C3E9000107F51063103B4FF0000094
:104580004FF00001C3E9020107F51063103B4FF043
:1045900000006149C3E9040107F5B15202F10802C4
:1045A00007F51063103B14461D460FCD0FC495E868
:1045B000030084E8030028E007F50E63083B4FF092
:1045C00000005549C3E9000107F50E63083B4FF0B1
:1045D00000004FF00001C3E9020107F50E63083B3C
:1045E0004FF000004FF00001C3E9040107F5B1529C
:1045F00002F1080207F50E63083B14461D460FCD75
:104600000FC495E8030084E8030007F5D85303F1CD
:10461000080307F5B15101F1080107F5D75000F182
:1046200010000322FCF744FC07F120031C3B1B682D
:104630001833D3E9000134A3D3E90023FCF760FA6F
:104640000346002B6AD007F120031C3B1B6808338C
:10465000D3E900012EA3D3E90023FCF751FA034666
:10466000002B25D007F50C614FF000024FF000033E
:10467000C1E9002307F50C614FF00002264BC1E9A8
:10468000022307F50C614FF000024FF00003C1E96F
:10469000042307F5B05202F1100207F50C6314462B
:1046A0001D460FCD0FC495E8030084E803005EE0CB
:1046B00007F50C63183B4FF000004FF00001C3E911
:1046C000000107F50C63183B4FF000004FF00001AC
:1046D000C3E9020107F50C63183B4FF000000E49D7
:1046E000C3E9040107F5B05202F1100207F50C63AB
:1046F000183B14461D460FCD0FC495E8030084E80F
:10470000030034E0AFF30080000000D0CEF7EB3FB1
:10471000000000A07243D23F0000F03F07F50A639B
:10472000103B4FF00000B449C3E9000107F50A63EC
:10473000103B4FF000004FF00001C3E9020107F504
:104740000A63103B4FF000004FF00001C3E9040181
:1047500007F5B05202F1100207F50A63103B144648
:104760001D460FCD0FC495E8030084E8030007F54C
:10477000D95307F5B05101F1100107F5D85000F1F8
:1047800008000322FCF794FB07F120031C3B1B6885
:104790000833D3E900018EA3D3E90023FCF7B0F975
:1047A0000346002B5ED007F120031C3B1B6820331F
:1047B000D3E9000188A3D3E90023FCF7A1F903465C
:1047C000002B29D007F50863083B4FF000008A4909
:1047D000C3E9000107F50863083B4FF000004FF004
:1047E0000001C3E9020107F50863083B4FF0000030
:1047F0004FF00001C3E9040107F5AF5202F11802BE
:1048000007F50863083B14461D460FCD0FC495E815
:10481000030084E803004EE007F506614FF0000254
:104820004FF00003C1E9002307F506614FF00002D5
:10483000714BC1E9022307F506614FF000024FF00A
:104840000003C1E9042307F5AF5202F1180207F58E
:10485000066314461D460FCD0FC495E8030084E897
:10486000030028E007F50663183B4FF000004FF007
:104870000001C3E9000107F50663183B4FF0000093
:104880004FF00001C3E9020107F50663183B4FF042
:1048900000005949C3E9040107F5AF5202F11802BB
:1048A00007F50663183B14461D460FCD0FC495E867
:1048B000030084E8030007F5D95303F1180307F553
:1048C000AF5101F1180107F5D9500322FCF7F0FAB6
:1048D00007F120031C3B1B680833D3E9000140A308
:1048E000D3E90023FCF70CF90346002B00F0E0802D
:1048F00007F120031C3B1B681033D3E900013AA3E6
:10490000D3E90023FCF7FCF80346002B27D007F57A
:104910000463103B4FF000003749C3E9000107F57D
:104920000463103B4FF000004FF00001C3E90201A7
:1049300007F50463103B4FF000004FF00001C3E99E
:10494000040107F5AF5207F50463103B14461D46FA
:104950000FCD0FC495E8030084E80300CFE007F112
:1049600020031C3B1B681833D3E9000120A3D3E9C3
:104970000023FCF7C5F80346002B3FD007F5026380
:10498000083B4FF000004FF00001C3E9000107F5BC
:104990000263083B4FF000001749C3E9020107F525
:1049A0000263083B4FF000004FF00001C3E904012F
:1049B00007F5AF5207F50263083B14461D460FCDBD
:1049C0000FC495E8030084E8030098E0AFF300808B
:1049D00000000070CEEFD03F000000082B87DE3FC4
:1049E000000000A07243D23F000000B0F3FDF43F8E
:1049F000000000F02631E83F0000F03F07F12003FF
:104A00001C3B1B68D3E90001C4A3D3E90023FCF7D6
:104A100077F80346002B23D007F500614FF0000222
:104A20004FF00003C1E9002307F500614FF00002D9
:104A3000B94BC1E9022307F500614FF000024FF0C6
:104A40000003C1E9042307F5AF5207F500631446DC
:104A50001D460FCD0FC495E8030084E803004EE027
:104A600007F50063183B4FF000004FF00001C3E969
:104A7000000107F50063183B4FF000004FF0000104
:104A8000C3E9020107F50063183B4FF00000A2499B
:104A9000C3E9040107F5AF5207F50063183B14465C
:104AA0001D460FCD0FC495E8030084E8030026E0FF
:104AB00007F5FC63103B4FF000004FF00001C3E925
:104AC000000107F5FC63103B4FF000004FF00001C0
:104AD000C3E9020107F5FC63103B4FF000008E496B
:104AE000C3E9040107F5AF5207F5FC63103B144618
:104AF0001D460FCD0FC495E8030084E8030007F5B9
:104B0000DA5303F1100307F5AF5107F5D95000F15F
:104B100018000322FCF7CCF907F120031C3B1B68AB
:104B20000833D3E9000174A3D3E90023FBF7E8FFBE
:104B30000346002B5ED007F120031C3B1B68183393
:104B4000D3E900016EA3D3E90023FBF7D9FF0346A5
:104B5000002B29D007F5F863083B4FF000004FF019
:104B60000001C3E9000107F5F863083B4FF00000BE
:104B70006949C3E9020107F5F863083B4FF00000FB
:104B80004FF00001C3E9040107F5AE5202F108023B
:104B900007F5F863083B14461D460FCD0FC495E892
:104BA000030084E803004EE007F5F4614FF00002D3
:104BB000594BC1E9002307F5F4614FF000024FF0B3
:104BC0000003C1E9022307F5F4614FF000024FF042
:104BD0000003C1E9042307F5AE5202F1080207F50C
:104BE000F46314461D460FCD0FC495E8030084E816
:104BF000030028E007F5F463183B4FF000004FF086
:104C00000001C3E9000107F5F463183B4FF0000011
:104C10004FF00001C3E9020107F5F463183B4FF0C0
:104C200000003D49C3E9040107F5AE5202F1080254
:104C300007F5F463183B14461D460FCD0FC495E8E5
:104C4000030084E8030007F5DB5303F1080307F5CD
:104C5000AE5101F1080107F5DA5000F1100003220E
:104C6000FCF726F907F120031C3B1B680833D3E946
:104C7000000125A3D3E90023FBF742FF0346002BE5
:104C80007AD007F120031C3B1B680833D3E90001ED
:104C90001FA3D3E90023FBF733FF0346002B41D0CA
:104CA00007F5F063103B4FF000001B49C3E900011A
:104CB00007F5F063103B4FF000004FF00001C3E92F
:104CC000020107F5F063103B4FF000004FF00001C8
:104CD000C3E9040107F5AD5202F1100207F5F063D4
:104CE000103B14461D460FCD0FC495E8030084E821
:104CF000030066E0AFF30080000000B07FA2D03F69
:104D000000000080ED7CED3F00000070CEEFD03F52
:104D1000000000A6DFF5B53F0000F03F00000000F6
:104D20005181F13F07F5EC63083B4FF000004FF075
:104D30000001C3E9000107F5EC63083B4FF00000F8
:104D4000BF49C3E9020107F5EC63083B4FF00000DF
:104D50004FF00001C3E9040107F5AD5202F1100262
:104D600007F5EC63083B14461D460FCD0FC495E8CC
:104D7000030084E8030024E007F5E8614FF0000237
:104D80004FF00003C1E9002307F5E8614FF000028E
:104D90004FF00003C1E9022307F5E8614FF000027C
:104DA000A74BC1E9042307F5AD5202F1100207F544
:104DB000E86314461D460FCD0FC495E8030084E850
:104DC000030007F5DC5307F5AD5101F1100107F5BC
:104DD000DB5000F108000322FCF76AF807F120031A
:104DE0001C3B1B682033D3E900018BA3D3E90023CC
:104DF000FBF786FE0346002B29D007F5E863183B36
:104E00004FF000008E49C3E9000107F5E863183B45
:104E10004FF000004FF00001C3E9020107F5E8631D
:104E2000183B4FF000004FF00001C3E9040107F503
:104E3000AC5202F1180207F5E863183B14461D4610
:104E40000FCD0FC495E8030084E8030023E107F1C8
:104E500020031C3B1B682033D3E9000170A3D3E976
:104E60000023FBF74DFE0346002B00F0EB8007F11B
:104E700020031C3B1B680833D3E900016AA3D3E974
:104E80000023FBF73DFE0346002B00F0988007F15E
:104E900020031C3B1B681033D3E9000164A3D3E952
:104EA0000023FBF72DFE0346002B29D007F5E46312
:104EB000103B4FF000004FF00001C3E9000107F57F
:104EC000E463103B4FF000005D49C3E9020107F5C0
:104ED000E463103B4FF000004FF00001C3E9040110
:104EE00007F5AC5202F1180207F5E463103B1446D3
:104EF0001D460FCD0FC495E8030084E80300CAE007
:104F000007F120031C3B1B680833D3E900014AA3C7
:104F1000D3E90023FBF7F4FD0346002B29D007F566
:104F2000E063083B4FF000004FF00001C3E90001CF
:104F300007F5E063083B4FF000004FF00001C3E9C4
:104F4000020107F5E063083B4FF000003C49C3E96C
:104F5000040107F5AC5202F1180207F5E063083BC3
:104F600014461D460FCD0FC495E8030084E80300E6
:104F700091E007F5DC614FF000024FF00003C1E95A
:104F8000002307F5DC614FF000022D4BC1E902233D
:104F900007F5DC614FF000024FF00003C1E9042384
:104FA00007F5AC5202F1180207F5DC6314461D4602
:104FB0000FCD0FC495E8030084E803006BE007F50C
:104FC000DC63183B4FF000004FF00001C3E9000123
:104FD00007F5DC63183B4FF000004FF00001C3E918
:104FE000020107F5DC63183B4FF000001449C3E9E8
:104FF000040107F5AC5202F1180207F5DC63183B17
:1050000014461D460FCD0FC495E8030084E8030045
:1050100041E000BFAFF30080000000082B87DE3FB7
:10502000000000906CE7F83F000000A07243D23F00
:105030000000007091EDFF3F000000B0FDD0CE3FBA
:105040000000F03F07F5D863103B4FF000004FF031
:105050000001C3E9000107F5D863103B4FF00000E1
:105060004FF00001C3E9020107F5D863103B4FF090
:105070000000C349C3E9040107F5AC5202F118026C
:1050800007F5D863103B14461D460FCD0FC495E8B5
:10509000030084E8030007F5DC5303F1180307F568
:1050A000AC5101F1180107F5DC500322FBF700FFBA
:1050B00007F120031C3B1B681033D3E90001A6A3B2
:1050C000D3E90023FBF71CFD0346002B27D007F58F
:1050D000D463083B4FF00000A949C3E9000107F57C
:1050E000D463083B4FF000004FF00001C3E9020118
:1050F00007F5D463083B4FF000004FF00001C3E90F
:10510000040107F5AC5207F5D463083B14461D466D
:105110000FCD0FC495E8030084E8030090E007F189
:1051200020031C3B1B680833D3E900018CA3D3E99F
:105130000023FBF7E5FC0346002B5AD007F12003C0
:105140001C3B1B681033D3E9000187A3D3E900237C
:10515000FBF7D6FC0346002B23D007F5D0614FF0B8
:1051600000024FF00003C1E9002307F5D0614FF0C2
:105170000002834BC1E9022307F5D0614FF0000222
:105180004FF00003C1E9042307F5AC5207F5D063E3
:1051900014461D460FCD0FC495E8030084E80300B4
:1051A0004EE007F5D063183B4FF000004FF00001D0
:1051B000C3E9000107F5D063183B4FF000004FF042
:1051C0000001C3E9020107F5D063183B4FF000006E
:1051D0006B49C3E9040107F5AC5207F5D063183BEE
:1051E00014461D460FCD0FC495E8030084E8030064
:1051F00026E007F5CC63103B4FF000004FF00001B4
:10520000C3E9000107F5CC63103B4FF000004FF0FD
:105210000001C3E9020107F5CC63103B4FF0000029
:105220005749C3E9040107F5AC5207F5CC63103BBD
:1052300014461D460FCD0FC495E8030084E8030013
:1052400007F5DD5303F1100307F5AC5107F5DC500A
:1052500000F118000322FBF72BFE07F120031C3B93
:105260001B681833D3E9000141A3D3E90023FBF7FE
:1052700047FC0346002B00F0E88007F120031C3BAD
:105280001B68D3E900013CA3D3E90023FBF738FCFA
:105290000346002B29D007F5C863083B4FF00000F8
:1052A0004FF00001C3E9000107F5C863083B4FF068
:1052B00000004FF00001C3E9020107F5C863083B95
:1052C0004FF000002E49C3E9040107F5AB5202F18B
:1052D000080207F5C863083B14461D460FCD0FC4EE
:1052E00095E8030084E80300D8E007F120031C3BA5
:1052F0001B681033D3E900011BA3D3E90023FBF79C
:10530000FFFB0346002B3DD007F5C4614FF00002C0
:105310004FF00003C1E9002307F5C4614FF000021C
:10532000174BC1E9022307F5C4614FF000024FF0AB
:105330000003C1E9042307F5AB5202F1080207F5A7
:10534000C46314461D460FCD0FC495E8030084E8DE
:105350000300A3E0AFF30080000000C0F528F43F95
:1053600000000070CEEFD03F0000007091EDFF3FD5
:10537000000000308B6CED3F00000020B416F03FC1
:105380000000F03F07F120031C3B1B681833D3E9F2
:105390000001A4A3D3E90023FBF7B2FB0346002BD3
:1053A00029D007F5C463183B4FF000004FF000010F
:1053B000C3E9000107F5C463183B4FF000009849AA
:1053C000C3E9020107F5C463183B4FF000004FF03A
:1053D0000001C3E9040107F5AB5202F1080207F529
:1053E000C463183B14461D460FCD0FC495E8030057
:1053F00084E8030052E007F5C063103B4FF0000063
:105400004FF00001C3E9000107F5C063103B4FF006
:1054100000004FF00001C3E9020107F5C063103B33
:105420004FF000007E49C3E9040107F5AB5202F1D9
:10543000080207F5C063103B14461D460FCD0FC48C
:1054400095E8030084E8030028E007F5BC63083B07
:105450004FF000007249C3E9000107F5BC63083B47
:105460004FF000004FF00001C3E9020107F5BC63F3
:10547000083B4FF000004FF00001C3E9040107F5BD
:10548000AB5202F1080207F5BC63083B14461D4607
:105490000FCD0FC495E8030084E8030007F5DE5341
:1054A00003F1080307F5AB5101F1080107F5DD50E1
:1054B00000F110000322FBF7FBFC07F120031C3B6B
:1054C0001B682033D3E900014FA3D3E90023FBF786
:1054D00017FB0346002B25D007F5B8614FF00002FB
:1054E0004F4BC1E9002307F5B8614FF000024FF0C0
:1054F0000003C1E9022307F5B8614FF000024FF045
:105500000003C1E9042307F5AA5202F1100207F5CE
:10551000B86314461D460FCD0FC495E8030084E818
:105520000300ACE007F120031C3B1B68D3E900013A
:1055300037A3D3E90023FBF7E3FA0346002B29D076
:1055400007F5B863183B4FF000004FF00001C3E9C6
:10555000000107F5B863183B4FF000004FF0000161
:10556000C3E9020107F5B863183B4FF000002C496E
:10557000C3E9040107F5AA5202F1100207F5B86366
:10558000183B14461D460FCD0FC495E8030084E870
:10559000030074E007F120031C3B1B681033D3E9C0
:1055A00000011DA3D3E90023FBF7AAFA0346002B51
:1055B0003CD007F5B463103B4FF000004FF0000102
:1055C000C3E9000107F5B463103B4FF00000144934
:1055D000C3E9020107F5B463103B4FF000004FF040
:1055E0000001C3E9040107F5AA5202F1100207F510
:1055F000B463103B14461D460FCD0FC495E803005D
:1056000084E803003BE000BF00000004AC1CE03F66
:1056100000000080AEB6F03F0000007091EDFF3F4B
:105620000000F03F0000000054E3E53F07F5B063E1
:10563000083B4FF000004FF00001C3E9000107F5FF
:10564000B063083B4FF000004FF00001C3E90201D6
:1056500007F5B063083B4FF00000C749C3E90401F8
:1056600007F5AA5202F1100207F5B063083B144691
:105670001D460FCD0FC495E8030084E8030007F52D
:10568000DF5307F5AA5101F1100107F5DE5000F1D3
:1056900008000322FBF70CFC07F120031C3B1B68EE
:1056A0001833D3E90001A8A3D3E90023FBF728FAB4
:1056B0000346002B5ED007F120031C3B1B68083318
:1056C000D3E90001A2A3D3E90023FBF719FA0346AB
:1056D000002B25D007F5AC614FF000024FF000031E
:1056E000C1E9002307F5AC614FF00002A24BC1E90C
:1056F000022307F5AC614FF000024FF00003C1E94F
:10570000042307F5A95202F1180207F5AC63144609
:105710001D460FCD0FC495E8030084E8030052E056
:1057200007F5AC63183B4FF000004FF00001C3E9F0
:10573000000107F5AC63183B4FF000004FF000018B
:10574000C3E9020107F5AC63183B4FF000008A493A
:10575000C3E9040107F5A95202F1180207F5AC6389
:10576000183B14461D460FCD0FC495E8030084E88E
:10577000030028E007F5A863103B4FF000007E49C6
:10578000C3E9000107F5A863103B4FF000004FF09C
:105790000001C3E9020107F5A863103B4FF00000C8
:1057A0004FF00001C3E9040107F5A95202F1180204
:1057B00007F5A863103B14461D460FCD0FC495E8AE
:1057C000030084E8030007F5DF5303F1180307F52E
:1057D000A95101F1180107F5DF500322FBF768FB1F
:1057E00007F120031C3B1B682033D3E900015AA3B7
:1057F000D3E90023FBF784F90346002B27D007F5F4
:10580000A463083B4FF000005B49C3E9000107F5C2
:10581000A463083B4FF000004FF00001C3E9020110
:1058200007F5A463083B4FF000004FF00001C3E907
:10583000040107F5A95207F5A463083B14461D4669
:105840000FCD0FC495E8030084E80300E5E007F1FD
:1058500020031C3B1B682033D3E9000140A3D3E99C
:105860000023FBF74DF90346002B00F0AF8007F152
:1058700020031C3B1B681033D3E900013AA3D3E992
:105880000023FBF73DF90346002B77D007F12003F7
:105890001C3B1B680833D3E9000135A3D3E900237F
:1058A000FBF72EF90346002B23D007F5A0614FF03C
:1058B00000024FF00003C1E9002307F5A0614FF09B
:1058C00000022D4BC1E9022307F5A0614FF0000251
:1058D0004FF00003C1E9042307F5A95207F5A063BF
:1058E00014461D460FCD0FC495E8030084E803005D
:1058F00093E007F5A063183B4FF000004FF0000164
:10590000C3E9000107F5A063183B4FF000004FF01A
:105910000001C3E9020107F5A063183B4FF0000046
:105920001549C3E9040107F5A95207F5A063183B1F
:1059300014461D460FCD0FC495E8030084E803000C
:105940006BE000BFAFF30080000000503789ED3FEF
:10595000000000B09A38D13F000000749318E03F77
:1059600000000080EB51FA3F0000007091EDFF3F16
:1059700000000070CEEFD03F0000F03F07F59C63C1
:10598000103B4FF000004FF00001C3E9000107F5A4
:105990009C63103B4FF000004FF00001C3E902018F
:1059A00007F59C63103B4FF00000B349C3E90401C5
:1059B00007F5A95207F59C63103B14461D460FCD11
:1059C0000FC495E8030084E8030026E007F5986318
:1059D000083B4FF000004FF00001C3E9000107F55C
:1059E0009863083B4FF000004FF00001C3E902014B
:1059F00007F59863083B4FF000009F49C3E9040195
:105A000007F5A95207F59863083B14461D460FCDCC
:105A10000FC495E8030084E8030007F5E05303F1A1
:105A2000100307F5A95107F5DF5000F11800032214
:105A3000FBF73EFA07F120031C3B1B682033D3E938
:105A4000000187A3D3E90023FBF75AF80346002B94
:105A500025D007F594614FF00002874BC1E9002380
:105A600007F594614FF000024FF00003C1E90223F3
:105A700007F594614FF000024FF00003C1E90423E1
:105A800007F5A85202F1080207F5946314461D4673
:105A90000FCD0FC495E8030084E8030061E007F12F
:105AA00020031C3B1B681833D3E900016EA3D3E924
:105AB0000023FBF725F80346002B29D007F5946354
:105AC000183B4FF000004FF00001C3E9000107F55B
:105AD0009463183B4FF000004FF00001C3E902014E
